:030000000215A046
:0C15A000787FE4F6D8FD75817502128397
:10151900447574794379636C653D25302E316600D5
:1015290050574D2047656E65726174696F6E002171
:031539002121006D
:0814CA00C2A6D2A77F0A7E0032
:1014D200E4FDFCC3ED9FEC9E5015E4FBFA0BBB0050
:0F14E200010AEB64704A70F50DBD00010C80E447
:0114F10022D8
:0A15B8008FB0C2A51214CAC2A72208
:0A15C2008FB0D2A51214CAC2A722EE
:10155C007F381215B81214CE7F0C1215B81214CE97
:0C156C007F801215B87F0A7E000214D2A6
:0E159200EF64014E7003FEFF227E007F0122F7
:0C15AC00758901758CB7758AFED28C22FF
:03000B0002157863
:10157800C0E0B2A030A009E50CF58C850D8A800783
:0A158800E50AF58C850B8AD0E032ED
:10145D00E4F558F5591215928F828E83E5824583F6
:10146D00700A7FC01215B87F611215C2E582640142
:10147D004583700A7FC01215B87F631215C2755D62
:10148D00FF755E15755F19851163851062850F6196
:10149D00850E607B007A007944120E7012155C7413
:1014AD00442559F8E6FF60141215C20559E5597027
:0C14BD000205587F037E001214D280E369
:0114C9002200
:1013D100AF11AE10AD0FAC0EA296E433753E00F521
:0113E1003FCC
:0813E2008F3D8E3C8D3B8C3ADF
:1013EA00754300754202754190754046E4FBFA79EF
:1013FA00C87842AF43AE42AD41AC40120A01AB3DA0
:10140A00AA3CA93BA83A1208F8120B558E0C8F0D6C
:10141A00AC0CAD0DE4120B1CA804A905AA06AB0777
:10142A00AF43AE42AD41AC40120803120B558E0ACF
:10143A008F0BC374FF950DF50D74FF950CF50CC356
:10144A0074FF950BF50B74FF950AF50AAF3FAE3E94
:03145A0002145D1C
:10153C00E4F511F510F50FF50ED296C297AF11AE7A
:10154C0010AD0FAC0EA29633753E00F53F0213E2C0
:10128300752200752301E4F538F539C290C291C285
:1012930092C293D2AFD2A91215AC12153C2093037C
:1012A30002138AE523640145227040755DFF755E74
:1012B30015755F29FB7A007924120E7012155C7F75
:1012C300011215B874242539F8E6FF60141215C20B
:1012D3000539E539700205387F1E7E001214D2806D
:1012E300E3E523152370BC152280B830903BE4FF5F
:1012F300FE7DC87C42AB11AA10A90FA80E120A9E4C
:10130300501AAF11AE10AD0FAC0EE4FBFA79207892
:10131300411208078F118E108D0F8C0E1213D120DE
:1013230090FD7FC87E001214D230913BE4FFFEFD96
:10133300FCAB11AA10A90FA80E120A9E601C401A3A
:10134300AF11AE10AD0FAC0EE4FBFA792078411269
:1013530008038F118E108D0F8C0E1213D12091FD67
:101363007FC87E001214D22092030212A0B296B25A
:10137300972092FDA296E4FE33FF12145D7FC87E90
:10138300001214D20212A0209343755DFF755E15FF
:10139300755F387B007A007924120E7012155C7F1A
:1013A300011215B874242539F8E6FF60141215C22A
:1013B3000539E539700205387F1E7E001214D2808C
:0D13C300E30523E52370020522C29680BADF
:0113D00022FA
:10080000020BC1E86480F8E933E83360110460F05A
:10081000ED33EC337009E8FCE9FDEAFEEBFF22045E
:1008200060DED3EB9FEA9EE99DE8C2E78CF0C2F759
:1008300095F0400CE8CCF8E9CDF9EACEFAEBCFFB25
:10084000120B8C85D0F05804700320D5B3E80470E7
:10085000075002B2D5020BCB92D5EC0460F7E4CC82
:10086000C0E0C398F8603B94186008400DD0E0FBEE
:10087000020BA3E4FBFAC9FC8028E830E406E4C9D3
:10088000FBE4CAFCE830E305E4C9CACBFCE8540742
:100890006010F8C3E913F9EA13FAEB13FBEC13FC4D
:1008A000D8F130F52FC3E49CFCEF9BFFEE9AFEEDF0
:1008B00099FDD0E0FBEF4E4D4C701222DB03020B92
:1008C000C8EC2CFCEF33FFEE33FEED33FDED30E7EB
:1008D000EB020BA3EF2BFFEE3AFEED39FDD0E0FB70
:1008E00050130BBB0003020BCBED13FDEE13FEEF19
:0808F00013FFEC13FC020BA343
:1008F800EC4D6011E8497017ED33EC3304600DE4FA
:10090800FCFFFEFD22E933E8330470F8020BC11244
:100918000B8C58046009E4CC248150062850090245
:100928000BCB284003020BC8C0E0EB4A7044B980E7
:1009380006D0E0FB020BB7EF4E701CBD8008EBFF42
:10094800EAFEE9FD80EBE98DF0A4FEE5F00209E19D
:10095800E9CDF9EAFEEBFFEF89F0A4FCE5F0CE89DA
:10096800F0A42EFFE435F0CD89F0A42DFEE435F097
:100978008067EF4E7005BD80D780C3EF8BF0A4ACC5
:10098800F0EE8BF0A42CFCE435F0F8EF8AF0A42C00
:10099800E5F038FCE433CB8DF0A42CFCE5F03BF813
:1009A800EE8AF0A42CFCE5F038F8E433CF89F0A403
:1009B8002CFCE5F038CF3400CE89F0A42FFFE5F009
:1009C8003EFEE433C98DF0A42EFEE5F039CD8AF061
:1009D800A42FFFE5F03EFEE43DFD33D0E0FB5007D9
:1009E8000BBB000F020BCBEC2CFCEF33FFEE33FEFE
:0609F800ED33FD020BA32C
:1009FE00020BCBEC5D046005E859047003020BC1D9
:100A0E00120B8C580460F6EC4860F2EC7004FDFE9C
:100A1E00FF22C860DB2481C85009C39860025006CB
:100A2E00020BC89850CAF582E9294B4A7005AB8271
:100A3E00020BB775F0007C1A7880C3EF9BEE9AED2F
:100A4E0099400DC3EF9BFFEE9AFEED99FDE842F043
:100A5E00DC23ACF0D0E0FFD0E0FED0E0FDAB822096
:100A6E00E7101BEB60BAEC2CFCEF33FFEE33FEED20
:100A7E0033FD020BA3E803F830E705C0F075F00074
:100A8E00EF2FFFEE33FEED33FD40B830E7C280AA04
:100A9E0074F8CC6480CCC86480C8F58204604FC3FF
:100AAE00EB9FF5F0EA9E42F0E99D42F0E89C45F09E
:100ABE00603C501DE5825FFFE582D313CB5BCBF428
:100ACE002B5582FB50280ABA002409B90020088051
:100ADE001DE5825BFBE582D313CF5FCFF4C3132FEB
:100AEE005582FF50090EBE00050DBD00010CC3EB73
:100AFE009FF5F0EA9E42F0E99D42F0E89C45F060D9
:090B0E0007CC4820E701B3EC22FA
:100B170075F020800E75F010800575F0087D007E59
:100B2700007F003392D530D503120DD0EC3340103F
:100B3700EF33FFEE33FEED33FDEC33FCD5F0ED2262
:0E0B4700E5F0247EA2D513CC92E7CDCEFF229E
:100B5500EDD2E7CD33EC3392D524814006E4FFFE98
:100B6500FDFC22FCE4CFCECDCC24E0501174FF80F7
:100B7500EDC3CC13CCCD13CDCE13CECF13CF047094
:070B8500F030D5DE020DD0B7
:100E1400E571245DF8E6057122785A300702785DA1
:100E2400E475F001120DDE020D782000EB7F2ED266
:100E3400008018EF540F2490D43440D4FF30040BB6
:100E4400EF24BFB41A0050032461FFE57260021559
:100E5400720575E5757002057430070D785AE475EE
:100E6400F001120DDEEF020DBE0214F27403D2077C
:100E74008003E4C207F5718B5A8A5B895CE4F572DE
:100E8400F574F575E57260077F20120E4F80F575D5
:100E940073FFC201C200C202C203C205C206C20875
:100EA400120E1DFF700D3007057F00120E60AF7526
:100EB400AE7422B4255FC2D5C204120E1DFF24D025
:100EC400B40A00501A75F00A787230D50508B6FFD6
:100ED4000106C6A426F620D5047002D20380D924C4
:100EE400CFB41A00EF5004C2E5D20402114DD2016E
:100EF40080C6D20080C0D20280BCD2D580BAD205CE
:100F040080B47F20120E4F2002077401B572004096
:100F1400F1120E14FF120E4F020E88D208D2068070
:100F240095120E14FB120E14FA120E14F94A4B7099
:100F34000679447A127BFF20022EE572602A7E0035
:100F44008E82758300120D9160060EEE657370F04B
:100F5400C2D5EBC0E0EAC0E0E9C0E0EE1211ADD0CA
:100F6400E0F9D0E0FAD0E0FB120D78FF60AAEBC004
:100F7400E0EAC0E0E9C0E0120E4FD0E02401F9D06D
:100F8400E03400FAD0E0FBE5730460DCD573D9806B
:100F940087D20280A212119060F7E57370010412E7
:100FA4000BD6A973600DE573600914F5731212373B
:100FB400EF60F3EA30E702F404C3995077EAF425CA
:100FC400730430E701E404F573800D12119060C1DD
:100FD400EA05732573120BD6EA7870F630E701E45C
:100FE400257304D57304200501141211ADE4C0E087
:100FF4001212377870E6601320E70714F6120E37E2
:10100400802204F6D0E014C0E07F00120E37E573AE
:101014006007120E2E1573800B300503120E2ED0AE
:10102400E0020E88D0E00480C512119060A0E57340
:1010340004120BD67870EAF6E57320050260010409
:0510440024041211ADAF
:1010490074FF04C0E0121237120E37E5732005024F
:101059006003120E2ED0E0B573E87F45120E417879
:1010690070E67F2B30E7047F2DF404C0E0120E4FA9
:10107900D0E075F00A84C0F0120E38D0E0120E38B4
:10108900020E88791080027908C206C2088008D247
:10109900D5790A8004790AC2D5E573047002F5731B
:1010A900E4FAFDFEFF120E14FC7B08200113120E58
:1010B90014FD7B1030000A120E14FE120E14FF7B71
:1010C90020EC3382D592D55013C3E43000069FFF3C
:1010D900E49EFEE42001039DFDE49CFCE4CBF8C200
:1010E90001EC700CCFCECDCCE824F8F870F3801762
:1010F900C3EF33FFEE33FEED33FDEC33FCEB33FB93
:10110900994002FB0FD8E9EB300105F8D0E0C4485B
:10111900B201C0E00AEC4D4E4F78207B0070C2EA64
:10112900B5730040BCC0E01211AFD0F0D0E020018F
:1011390004C4C0E0C4B201C0F0120E38D0F0D5F03A
:10114900EB020E88120DEE0F2553108C580EF64C3B
:101159000EF24210904F1098441098490F0B43100B
:101169009E550FCF46102D450F99471264500EFA20
:101179002D0EFE2E0F212B0F02230F1F20124D2A99
:101189000EBA4800000F19E573B4FF037573061210
:101199000E14FC120E14FD120E14FE120E14FF781A
:1011A90069020C05790AA2D5200314300509B91082
:1011B900020404B9080104A2D52006025001042042
:1011C90002689202B572005034C0E07F20300319E2
:1011D9007F30A20272067205500F121206C202C2B5
:1011E90006C205C2087F30800F300503E9C0E0124E
:1011F9000E4F300503D0E0F9D0E0B572CC300517B9
:101209007F30B9100C120E4F7F583004077F788059
:1012190003B90803120E4F3002057F2D020E4F7FCE
:10122900202008F87F2B2006F322920280CF7F002E
:10123900B4070050052469F8E6FF22286E756C6C26
:101249002900D201120E143001F8C201787230D58A
:101259000108F6020EBA2D50434958120E14240300
:10126900B405004001E490125F93120E40743A12E3
:0A1279000E40D20375720402108CBF
:100B8C00E9D2E7C933E833F892D5EDD2E7CD33ECAF
:070B9C0033FC5002B2D52228
:100BA300EC30E7100FBF000C0EBE00080DBD0004B3
:100BB3000BEB6014A2D5EB13FCED92E7FD2274FF5F
:100BC300FCFDFEFF22E480F8A2D574FF13FC7D80B8
:030BD300E480EFCC
:100BD600F920E72824F950037907E4F42402FB18E6
:100BE600DBFDE624FB5014E9600DE4F618E604F696
:0F0BF600B40A08E4F6D9F57401F60A22C2D52232
:100C0500ED33EC3392D5FA602AB4FF33EDC2E77BBE
:100C1500FF60067A0C792AE4227A0C793320D50410
:100C25007A0C792E224E614E002B494E46002D49F5
:100C35004E4600E47A08F608DAFC7B00740722E8E1
:100C4500C0E0ECC0E0EDC0E0EEC0E0EFC0E0EA756A
:100C5500F010A4CAABF075F04DA42BFBE435F0FC05
:100C6500EA2410FAEB34C5FBEC34D9FCEDC2E7FFFE
:100C750075F056A4F42411C5F0F434C58FF0A42AF8
:100C8500E5F03BE43CF620E714120D38D0E0FFD048
:100C9500E0FED0E0FDD0E0FC120A018014F404125D
:100CA5000D38D0E0FFD0E0FED0E0FDD0E0FC12082A
:100CB500F8D0E0F8E6FAEDD2E7CD33EC332482FB49
:100CC500E4C3CF33CFCE33CECD33CD33DBF37B0788
:100CD50075F00A846004F6081B0AE5F0F6088FF043
:100CE500740AA4FFACF08EF0740AA42CFEACF0508C
:100CF500010C8DF0740AA42CFDE435F0F608DBDE5A
:030D05007407224E
:100D08003F8000004120000042C80000447A0000F3
:100D1800461C400047C35000497424004B18968075
:100D28004CBEBC205A0E1BCA6753C21C749DC5AE6C
:100D3800FB60065407601C2323120D66EB543860D1
:100D480009120D52120D611208F8ECF8EDF9EEFADD
:100D5800EFCB22EB120D6180F1543803241C900D67
:100D680008FE93FC0EEE93FD0EEE930ECE93FF223B
:100D7800BB010689828A83E0225002E722BBFE0279
:090D8800E32289828A83E49322AC
:100D9100BB010CE58229F582E5833AF583E0225017
:100DA10006E92582F8E622BBFE06E92582F8E22261
:0D0DB100E58229F582E5833AF583E493227B
:100DBE00BB010689828A83F0225002F722BBFE0114
:020DCE00F3220E
:0E0DD000C3E49FFFE49EFEE49DFDE49CFC2234
:100DDE00FAE6FB0808E6F925F0F618E6CA3AF62216
:100DEE00D083D082F8E4937012740193700DA3A394
:100DFE0093F8740193F5828883E4737402936860A8
:060E0E00EFA3A3A380DFA7
:1014F200EFB40A07740D1214FD740A309811A899FA
:10150200B8130CC2983098FDA899C298B811F63059
:0715120099FDC299F5992231
:00000001FF
